{
  "_format": "hh-sol-artifact-1",
  "contractName": "L2StandardERC1155",
  "sourceName": "contracts/standards/L2StandardERC1155.sol",
  "abi": [
    {
      "inputs": [
        {
          "internalType": "address",
          "name": "_l1Token",
          "type": "address"
        },
        {
          "internalType": "address",
          "name": "_l2bridge",
          "type": "address"
        },
        {
          "internalType": "string",
          "name": "_uri",
          "type": "string"
        }
      ],
      "stateMutability": "nonpayable",
      "type": "constructor"
    },
    {
      "anonymous": false,
      "inputs": [
        {
          "indexed": true,
          "internalType": "address",
          "name": "account",
          "type": "address"
        },
        {
          "indexed": true,
          "internalType": "address",
          "name": "operator",
          "type": "address"
        },
        {
          "indexed": false,
          "internalType": "bool",
          "name": "approved",
          "type": "bool"
        }
      ],
      "name": "ApprovalForAll",
      "type": "event"
    },
    {
      "anonymous": false,
      "inputs": [
        {
          "indexed": true,
          "internalType": "address",
          "name": "_from",
          "type": "address"
        },
        {
          "indexed": false,
          "internalType": "uint256",
          "name": "_tokenId",
          "type": "uint256"
        },
        {
          "indexed": false,
          "internalType": "uint256",
          "name": "_amount",
          "type": "uint256"
        }
      ],
      "name": "Burn",
      "type": "event"
    },
    {
      "anonymous": false,
      "inputs": [
        {
          "indexed": true,
          "internalType": "address",
          "name": "_to",
          "type": "address"
        },
        {
          "indexed": false,
          "internalType": "uint256",
          "name": "_tokenId",
          "type": "uint256"
        },
        {
          "indexed": false,
          "internalType": "uint256",
          "name": "_amount",
          "type": "uint256"
        }
      ],
      "name": "Mint",
      "type": "event"
    },
    {
      "anonymous": false,
      "inputs": [
        {
          "indexed": true,
          "internalType": "address",
          "name": "operator",
          "type": "address"
        },
        {
          "indexed": true,
          "internalType": "address",
          "name": "from",
          "type": "address"
        },
        {
          "indexed": true,
          "internalType": "address",
          "name": "to",
          "type": "address"
        },
        {
          "indexed": false,
          "internalType": "uint256[]",
          "name": "ids",
          "type": "uint256[]"
        },
        {
          "indexed": false,
          "internalType": "uint256[]",
          "name": "values",
          "type": "uint256[]"
        }
      ],
      "name": "TransferBatch",
      "type": "event"
    },
    {
      "anonymous": false,
      "inputs": [
        {
          "indexed": true,
          "internalType": "address",
          "name": "operator",
          "type": "address"
        },
        {
          "indexed": true,
          "internalType": "address",
          "name": "from",
          "type": "address"
        },
        {
          "indexed": true,
          "internalType": "address",
          "name": "to",
          "type": "address"
        },
        {
          "indexed": false,
          "internalType": "uint256",
          "name": "id",
          "type": "uint256"
        },
        {
          "indexed": false,
          "internalType": "uint256",
          "name": "value",
          "type": "uint256"
        }
      ],
      "name": "TransferSingle",
      "type": "event"
    },
    {
      "anonymous": false,
      "inputs": [
        {
          "indexed": false,
          "internalType": "string",
          "name": "value",
          "type": "string"
        },
        {
          "indexed": true,
          "internalType": "uint256",
          "name": "id",
          "type": "uint256"
        }
      ],
      "name": "URI",
      "type": "event"
    },
    {
      "inputs": [
        {
          "internalType": "address",
          "name": "account",
          "type": "address"
        },
        {
          "internalType": "uint256",
          "name": "id",
          "type": "uint256"
        }
      ],
      "name": "balanceOf",
      "outputs": [
        {
          "internalType": "uint256",
          "name": "",
          "type": "uint256"
        }
      ],
      "stateMutability": "view",
      "type": "function"
    },
    {
      "inputs": [
        {
          "internalType": "address[]",
          "name": "accounts",
          "type": "address[]"
        },
        {
          "internalType": "uint256[]",
          "name": "ids",
          "type": "uint256[]"
        }
      ],
      "name": "balanceOfBatch",
      "outputs": [
        {
          "internalType": "uint256[]",
          "name": "",
          "type": "uint256[]"
        }
      ],
      "stateMutability": "view",
      "type": "function"
    },
    {
      "inputs": [
        {
          "internalType": "address",
          "name": "_from",
          "type": "address"
        },
        {
          "internalType": "uint256",
          "name": "_tokenId",
          "type": "uint256"
        },
        {
          "internalType": "uint256",
          "name": "_amount",
          "type": "uint256"
        }
      ],
      "name": "burn",
      "outputs": [],
      "stateMutability": "nonpayable",
      "type": "function"
    },
    {
      "inputs": [
        {
          "internalType": "address",
          "name": "account",
          "type": "address"
        },
        {
          "internalType": "address",
          "name": "operator",
          "type": "address"
        }
      ],
      "name": "isApprovedForAll",
      "outputs": [
        {
          "internalType": "bool",
          "name": "",
          "type": "bool"
        }
      ],
      "stateMutability": "view",
      "type": "function"
    },
    {
      "inputs": [],
      "name": "l1Token",
      "outputs": [
        {
          "internalType": "address",
          "name": "",
          "type": "address"
        }
      ],
      "stateMutability": "view",
      "type": "function"
    },
    {
      "inputs": [],
      "name": "l2Bridge",
      "outputs": [
        {
          "internalType": "address",
          "name": "",
          "type": "address"
        }
      ],
      "stateMutability": "view",
      "type": "function"
    },
    {
      "inputs": [
        {
          "internalType": "address",
          "name": "_to",
          "type": "address"
        },
        {
          "internalType": "uint256",
          "name": "_tokenId",
          "type": "uint256"
        },
        {
          "internalType": "uint256",
          "name": "_amount",
          "type": "uint256"
        },
        {
          "internalType": "bytes",
          "name": "data",
          "type": "bytes"
        }
      ],
      "name": "mint",
      "outputs": [],
      "stateMutability": "nonpayable",
      "type": "function"
    },
    {
      "inputs": [
        {
          "internalType": "address",
          "name": "from",
          "type": "address"
        },
        {
          "internalType": "address",
          "name": "to",
          "type": "address"
        },
        {
          "internalType": "uint256[]",
          "name": "ids",
          "type": "uint256[]"
        },
        {
          "internalType": "uint256[]",
          "name": "amounts",
          "type": "uint256[]"
        },
        {
          "internalType": "bytes",
          "name": "data",
          "type": "bytes"
        }
      ],
      "name": "safeBatchTransferFrom",
      "outputs": [],
      "stateMutability": "nonpayable",
      "type": "function"
    },
    {
      "inputs": [
        {
          "internalType": "address",
          "name": "from",
          "type": "address"
        },
        {
          "internalType": "address",
          "name": "to",
          "type": "address"
        },
        {
          "internalType": "uint256",
          "name": "id",
          "type": "uint256"
        },
        {
          "internalType": "uint256",
          "name": "amount",
          "type": "uint256"
        },
        {
          "internalType": "bytes",
          "name": "data",
          "type": "bytes"
        }
      ],
      "name": "safeTransferFrom",
      "outputs": [],
      "stateMutability": "nonpayable",
      "type": "function"
    },
    {
      "inputs": [
        {
          "internalType": "address",
          "name": "operator",
          "type": "address"
        },
        {
          "internalType": "bool",
          "name": "approved",
          "type": "bool"
        }
      ],
      "name": "setApprovalForAll",
      "outputs": [],
      "stateMutability": "nonpayable",
      "type": "function"
    },
    {
      "inputs": [
        {
          "internalType": "bytes4",
          "name": "_interfaceId",
          "type": "bytes4"
        }
      ],
      "name": "supportsInterface",
      "outputs": [
        {
          "internalType": "bool",
          "name": "",
          "type": "bool"
        }
      ],
      "stateMutability": "view",
      "type": "function"
    },
    {
      "inputs": [
        {
          "internalType": "uint256",
          "name": "",
          "type": "uint256"
        }
      ],
      "name": "uri",
      "outputs": [
        {
          "internalType": "string",
          "name": "",
          "type": "string"
        }
      ],
      "stateMutability": "view",
      "type": "function"
    }
  ],
  "bytecode": "0x60806040523480156200001157600080fd5b50604051620022f9380380620022f9833981016040819052620000349162000166565b80620000408162000074565b5050600380546001600160a01b039384166001600160a01b03199182161790915560048054929093169116179055620002a7565b8051620000899060029060208401906200008d565b5050565b8280546200009b906200026a565b90600052602060002090601f016020900481019282620000bf57600085556200010a565b82601f10620000da57805160ff19168380011785556200010a565b828001600101855582156200010a579182015b828111156200010a578251825591602001919060010190620000ed565b50620001189291506200011c565b5090565b5b808211156200011857600081556001016200011d565b80516001600160a01b03811681146200014b57600080fd5b919050565b634e487b7160e01b600052604160045260246000fd5b6000806000606084860312156200017c57600080fd5b620001878462000133565b925060206200019881860162000133565b60408601519093506001600160401b0380821115620001b657600080fd5b818701915087601f830112620001cb57600080fd5b815181811115620001e057620001e062000150565b604051601f8201601f19908116603f011681019083821181831017156200020b576200020b62000150565b816040528281528a868487010111156200022457600080fd5b600093505b8284101562000248578484018601518185018701529285019262000229565b828411156200025a5760008684830101525b8096505050505050509250925092565b600181811c908216806200027f57607f821691505b60208210811415620002a157634e487b7160e01b600052602260045260246000fd5b50919050565b61204280620002b76000396000f3fe608060405234801561001057600080fd5b50600436106100d35760003560e01c8063a22cb46511610081578063e985e9c51161005b578063e985e9c514610201578063f242432a1461024a578063f5298aca1461025d57600080fd5b8063a22cb46514610189578063ae1f6aaf1461019c578063c01e1bd6146101e157600080fd5b80632eb2c2d6116100b25780632eb2c2d6146101415780634e1273f414610156578063731133e91461017657600080fd5b8062fdd58e146100d857806301ffc9a7146100fe5780630e89341c14610121575b600080fd5b6100eb6100e636600461175d565b610270565b6040519081526020015b60405180910390f35b61011161010c3660046117b8565b610333565b60405190151581526020016100f5565b61013461012f3660046117dc565b6103e2565b6040516100f59190611860565b61015461014f366004611a14565b610476565b005b610169610164366004611abe565b610525565b6040516100f59190611bc4565b610154610184366004611bd7565b610663565b610154610197366004611c38565b610753565b6004546101bc9073ffffffffffffffffffffffffffffffffffffffff1681565b60405173ffffffffffffffffffffffffffffffffffffffff90911681526020016100f5565b6003546101bc9073ffffffffffffffffffffffffffffffffffffffff1681565b61011161020f366004611c74565b73ffffffffffffffffffffffffffffffffffffffff918216600090815260016020908152604080832093909416825291909152205460ff1690565b610154610258366004611ca7565b610876565b61015461026b366004611d0c565b61091e565b600073ffffffffffffffffffffffffffffffffffffffff83166103005760405162461bcd60e51b815260206004820152602b60248201527f455243313135353a2062616c616e636520717565727920666f7220746865207a60448201527f65726f206164647265737300000000000000000000000000000000000000000060648201526084015b60405180910390fd5b5060009081526020818152604080832073ffffffffffffffffffffffffffffffffffffffff949094168352929052205490565b60007f01ffc9a7000000000000000000000000000000000000000000000000000000007fe839c85a000000000000000000000000000000000000000000000000000000007fffffffff0000000000000000000000000000000000000000000000000000000084168214806103cb57507fffffffff00000000000000000000000000000000000000000000000000000000848116908216145b806103da57506103da84610a0c565b949350505050565b6060600280546103f190611d3f565b80601f016020809104026020016040519081016040528092919081815260200182805461041d90611d3f565b801561046a5780601f1061043f5761010080835404028352916020019161046a565b820191906000526020600020905b81548152906001019060200180831161044d57829003601f168201915b50505050509050919050565b73ffffffffffffffffffffffffffffffffffffffff851633148061049f575061049f853361020f565b6105115760405162461bcd60e51b815260206004820152603260248201527f455243313135353a207472616e736665722063616c6c6572206973206e6f742060448201527f6f776e6572206e6f7220617070726f766564000000000000000000000000000060648201526084016102f7565b61051e8585858585610af1565b5050505050565b6060815183511461059e5760405162461bcd60e51b815260206004820152602960248201527f455243313135353a206163636f756e747320616e6420696473206c656e67746860448201527f206d69736d61746368000000000000000000000000000000000000000000000060648201526084016102f7565b6000835167ffffffffffffffff8111156105ba576105ba611873565b6040519080825280602002602001820160405280156105e3578160200160208202803683370190505b50905060005b845181101561065b5761062e85828151811061060757610607611d93565b602002602001015185838151811061062157610621611d93565b6020026020010151610270565b82828151811061064057610640611d93565b602090810291909101015261065481611df1565b90506105e9565b509392505050565b60045473ffffffffffffffffffffffffffffffffffffffff1633146106f05760405162461bcd60e51b815260206004820152603760248201527f4c325374616e64617264455243313135353a206f6e6c79204c3242726964676560448201527f2063616e2063616c6c20746869732066756e6374696f6e00000000000000000060648201526084016102f7565b6106fc84848484610ddd565b604080518481526020810184905273ffffffffffffffffffffffffffffffffffffffff8616917f4c209b5fc8ad50758f13e2e1088ba56a560dff690a1c6fef26394f4c03821c4f910160405180910390a250505050565b3373ffffffffffffffffffffffffffffffffffffffff831614156107df5760405162461bcd60e51b815260206004820152602960248201527f455243313135353a2073657474696e6720617070726f76616c2073746174757360448201527f20666f722073656c66000000000000000000000000000000000000000000000060648201526084016102f7565b33600081815260016020908152604080832073ffffffffffffffffffffffffffffffffffffffff87168085529083529281902080547fffffffffffffffffffffffffffffffffffffffffffffffffffffffffffffff001686151590811790915590519081529192917f17307eab39ab6107e8899845ad3d59bd9653f200f220920489ca2b5937696c31910160405180910390a35050565b73ffffffffffffffffffffffffffffffffffffffff851633148061089f575061089f853361020f565b6109115760405162461bcd60e51b815260206004820152602960248201527f455243313135353a2063616c6c6572206973206e6f74206f776e6572206e6f7260448201527f20617070726f766564000000000000000000000000000000000000000000000060648201526084016102f7565b61051e8585858585610f2a565b60045473ffffffffffffffffffffffffffffffffffffffff1633146109ab5760405162461bcd60e51b815260206004820152603760248201527f4c325374616e64617264455243313135353a206f6e6c79204c3242726964676560448201527f2063616e2063616c6c20746869732066756e6374696f6e00000000000000000060648201526084016102f7565b6109b6838383611127565b604080518381526020810183905273ffffffffffffffffffffffffffffffffffffffff8516917f49995e5dd6158cf69ad3e9777c46755a1a826a446c6416992167462dad033b2a910160405180910390a2505050565b60007fffffffff0000000000000000000000000000000000000000000000000000000082167fd9b67a26000000000000000000000000000000000000000000000000000000001480610a9f57507fffffffff0000000000000000000000000000000000000000000000000000000082167f0e89341c00000000000000000000000000000000000000000000000000000000145b80610aeb57507f01ffc9a7000000000000000000000000000000000000000000000000000000007fffffffff000000000000000000000000000000000000000000000000000000008316145b92915050565b8151835114610b685760405162461bcd60e51b815260206004820152602860248201527f455243313135353a2069647320616e6420616d6f756e7473206c656e6774682060448201527f6d69736d6174636800000000000000000000000000000000000000000000000060648201526084016102f7565b73ffffffffffffffffffffffffffffffffffffffff8416610bf15760405162461bcd60e51b815260206004820152602560248201527f455243313135353a207472616e7366657220746f20746865207a65726f20616460448201527f647265737300000000000000000000000000000000000000000000000000000060648201526084016102f7565b3360005b8451811015610d48576000858281518110610c1257610c12611d93565b602002602001015190506000858381518110610c3057610c30611d93565b6020908102919091018101516000848152808352604080822073ffffffffffffffffffffffffffffffffffffffff8e168352909352919091205490915081811015610ce35760405162461bcd60e51b815260206004820152602a60248201527f455243313135353a20696e73756666696369656e742062616c616e636520666f60448201527f72207472616e736665720000000000000000000000000000000000000000000060648201526084016102f7565b60008381526020818152604080832073ffffffffffffffffffffffffffffffffffffffff8e8116855292528083208585039055908b16825281208054849290610d2d908490611e2a565b9250508190555050505080610d4190611df1565b9050610bf5565b508473ffffffffffffffffffffffffffffffffffffffff168673ffffffffffffffffffffffffffffffffffffffff168273ffffffffffffffffffffffffffffffffffffffff167f4a39dc06d4c0dbc64b70af90fd698a233a518aa5d07e595d983b8c0526c8f7fb8787604051610dbf929190611e42565b60405180910390a4610dd58187878787876112fb565b505050505050565b73ffffffffffffffffffffffffffffffffffffffff8416610e665760405162461bcd60e51b815260206004820152602160248201527f455243313135353a206d696e7420746f20746865207a65726f2061646472657360448201527f730000000000000000000000000000000000000000000000000000000000000060648201526084016102f7565b33610e8081600087610e7788611547565b61051e88611547565b60008481526020818152604080832073ffffffffffffffffffffffffffffffffffffffff8916845290915281208054859290610ebd908490611e2a565b9091555050604080518581526020810185905273ffffffffffffffffffffffffffffffffffffffff80881692600092918516917fc3d58168c5ae7397731d063d5bbf3d657854427343f4c083240f7aacaa2d0f62910160405180910390a461051e81600087878787611592565b73ffffffffffffffffffffffffffffffffffffffff8416610fb35760405162461bcd60e51b815260206004820152602560248201527f455243313135353a207472616e7366657220746f20746865207a65726f20616460448201527f647265737300000000000000000000000000000000000000000000000000000060648201526084016102f7565b33610fc3818787610e7788611547565b60008481526020818152604080832073ffffffffffffffffffffffffffffffffffffffff8a168452909152902054838110156110675760405162461bcd60e51b815260206004820152602a60248201527f455243313135353a20696e73756666696369656e742062616c616e636520666f60448201527f72207472616e736665720000000000000000000000000000000000000000000060648201526084016102f7565b60008581526020818152604080832073ffffffffffffffffffffffffffffffffffffffff8b81168552925280832087850390559088168252812080548692906110b1908490611e2a565b9091555050604080518681526020810186905273ffffffffffffffffffffffffffffffffffffffff808916928a821692918616917fc3d58168c5ae7397731d063d5bbf3d657854427343f4c083240f7aacaa2d0f62910160405180910390a461111e828888888888611592565b50505050505050565b73ffffffffffffffffffffffffffffffffffffffff83166111b05760405162461bcd60e51b815260206004820152602360248201527f455243313135353a206275726e2066726f6d20746865207a65726f206164647260448201527f657373000000000000000000000000000000000000000000000000000000000060648201526084016102f7565b336111e0818560006111c187611547565b6111ca87611547565b5050604080516020810190915260009052505050565b60008381526020818152604080832073ffffffffffffffffffffffffffffffffffffffff88168452909152902054828110156112835760405162461bcd60e51b8152602060048201526024808201527f455243313135353a206275726e20616d6f756e7420657863656564732062616c60448201527f616e63650000000000000000000000000000000000000000000000000000000060648201526084016102f7565b60008481526020818152604080832073ffffffffffffffffffffffffffffffffffffffff898116808652918452828520888703905582518981529384018890529092908616917fc3d58168c5ae7397731d063d5bbf3d657854427343f4c083240f7aacaa2d0f62910160405180910390a45050505050565b73ffffffffffffffffffffffffffffffffffffffff84163b15610dd5576040517fbc197c8100000000000000000000000000000000000000000000000000000000815273ffffffffffffffffffffffffffffffffffffffff85169063bc197c81906113729089908990889088908890600401611e70565b602060405180830381600087803b15801561138c57600080fd5b505af19250505080156113da575060408051601f3d9081017fffffffffffffffffffffffffffffffffffffffffffffffffffffffffffffffe01682019092526113d791810190611edb565b60015b611490576113e6611ef8565b806308c379a0141561142057506113fb611f14565b806114065750611422565b8060405162461bcd60e51b81526004016102f79190611860565b505b60405162461bcd60e51b815260206004820152603460248201527f455243313135353a207472616e7366657220746f206e6f6e204552433131353560448201527f526563656976657220696d706c656d656e74657200000000000000000000000060648201526084016102f7565b7fffffffff0000000000000000000000000000000000000000000000000000000081167fbc197c81000000000000000000000000000000000000000000000000000000001461111e5760405162461bcd60e51b815260206004820152602860248201527f455243313135353a204552433131353552656365697665722072656a6563746560448201527f6420746f6b656e7300000000000000000000000000000000000000000000000060648201526084016102f7565b6040805160018082528183019092526060916000919060208083019080368337019050509050828160008151811061158157611581611d93565b602090810291909101015292915050565b73ffffffffffffffffffffffffffffffffffffffff84163b15610dd5576040517ff23a6e6100000000000000000000000000000000000000000000000000000000815273ffffffffffffffffffffffffffffffffffffffff85169063f23a6e61906116099089908990889088908890600401611fbc565b602060405180830381600087803b15801561162357600080fd5b505af1925050508015611671575060408051601f3d9081017fffffffffffffffffffffffffffffffffffffffffffffffffffffffffffffffe016820190925261166e91810190611edb565b60015b61167d576113e6611ef8565b7fffffffff0000000000000000000000000000000000000000000000000000000081167ff23a6e61000000000000000000000000000000000000000000000000000000001461111e5760405162461bcd60e51b815260206004820152602860248201527f455243313135353a204552433131353552656365697665722072656a6563746560448201527f6420746f6b656e7300000000000000000000000000000000000000000000000060648201526084016102f7565b803573ffffffffffffffffffffffffffffffffffffffff8116811461175857600080fd5b919050565b6000806040838503121561177057600080fd5b61177983611734565b946020939093013593505050565b7fffffffff00000000000000000000000000000000000000000000000000000000811681146117b557600080fd5b50565b6000602082840312156117ca57600080fd5b81356117d581611787565b9392505050565b6000602082840312156117ee57600080fd5b5035919050565b6000815180845260005b8181101561181b576020818501810151868301820152016117ff565b8181111561182d576000602083870101525b50601f017fffffffffffffffffffffffffffffffffffffffffffffffffffffffffffffffe0169290920160200192915050565b6020815260006117d560208301846117f5565b7f4e487b7100000000000000000000000000000000000000000000000000000000600052604160045260246000fd5b7fffffffffffffffffffffffffffffffffffffffffffffffffffffffffffffffe0601f830116810181811067ffffffffffffffff821117156118e6576118e6611873565b6040525050565b600067ffffffffffffffff82111561190757611907611873565b5060051b60200190565b600082601f83011261192257600080fd5b8135602061192f826118ed565b60405161193c82826118a2565b83815260059390931b850182019282810191508684111561195c57600080fd5b8286015b848110156119775780358352918301918301611960565b509695505050505050565b600082601f83011261199357600080fd5b813567ffffffffffffffff8111156119ad576119ad611873565b6040516119e260207fffffffffffffffffffffffffffffffffffffffffffffffffffffffffffffffe0601f85011601826118a2565b8181528460208386010111156119f757600080fd5b816020850160208301376000918101602001919091529392505050565b600080600080600060a08688031215611a2c57600080fd5b611a3586611734565b9450611a4360208701611734565b9350604086013567ffffffffffffffff80821115611a6057600080fd5b611a6c89838a01611911565b94506060880135915080821115611a8257600080fd5b611a8e89838a01611911565b93506080880135915080821115611aa457600080fd5b50611ab188828901611982565b9150509295509295909350565b60008060408385031215611ad157600080fd5b823567ffffffffffffffff80821115611ae957600080fd5b818501915085601f830112611afd57600080fd5b81356020611b0a826118ed565b604051611b1782826118a2565b83815260059390931b8501820192828101915089841115611b3757600080fd5b948201945b83861015611b5c57611b4d86611734565b82529482019490820190611b3c565b96505086013592505080821115611b7257600080fd5b50611b7f85828601611911565b9150509250929050565b600081518084526020808501945080840160005b83811015611bb957815187529582019590820190600101611b9d565b509495945050505050565b6020815260006117d56020830184611b89565b60008060008060808587031215611bed57600080fd5b611bf685611734565b93506020850135925060408501359150606085013567ffffffffffffffff811115611c2057600080fd5b611c2c87828801611982565b91505092959194509250565b60008060408385031215611c4b57600080fd5b611c5483611734565b915060208301358015158114611c6957600080fd5b809150509250929050565b60008060408385031215611c8757600080fd5b611c9083611734565b9150611c9e60208401611734565b90509250929050565b600080600080600060a08688031215611cbf57600080fd5b611cc886611734565b9450611cd660208701611734565b93506040860135925060608601359150608086013567ffffffffffffffff811115611d0057600080fd5b611ab188828901611982565b600080600060608486031215611d2157600080fd5b611d2a84611734565b95602085013595506040909401359392505050565b600181811c90821680611d5357607f821691505b60208210811415611d8d577f4e487b7100000000000000000000000000000000000000000000000000000000600052602260045260246000fd5b50919050565b7f4e487b7100000000000000000000000000000000000000000000000000000000600052603260045260246000fd5b7f4e487b7100000000000000000000000000000000000000000000000000000000600052601160045260246000fd5b60007fffffffffffffffffffffffffffffffffffffffffffffffffffffffffffffffff821415611e2357611e23611dc2565b5060010190565b60008219821115611e3d57611e3d611dc2565b500190565b604081526000611e556040830185611b89565b8281036020840152611e678185611b89565b95945050505050565b600073ffffffffffffffffffffffffffffffffffffffff808816835280871660208401525060a06040830152611ea960a0830186611b89565b8281036060840152611ebb8186611b89565b90508281036080840152611ecf81856117f5565b98975050505050505050565b600060208284031215611eed57600080fd5b81516117d581611787565b600060033d1115611f115760046000803e5060005160e01c5b90565b600060443d1015611f225790565b6040517ffffffffffffffffffffffffffffffffffffffffffffffffffffffffffffffffc803d016004833e81513d67ffffffffffffffff8160248401118184111715611f7057505050505090565b8285019150815181811115611f885750505050505090565b843d8701016020828501011115611fa25750505050505090565b611fb1602082860101876118a2565b509095945050505050565b600073ffffffffffffffffffffffffffffffffffffffff808816835280871660208401525084604083015283606083015260a0608083015261200160a08301846117f5565b97965050505050505056fea26469706673582212201aaf8abce7c7552075596b085abcdf30d87739d88425f309589b723af3546c0a64736f6c63430008090033",
  "linkReferences": {},
  "deployedLinkReferences": {}
}